:0300000002000EED
:0C000E00787FE4F6D8FD758120020055D3
:1001D700FC60DAF266B6BEE0FEF6EE3E9C7A9E8ED4
:1001C500010801010A0A010C03010900010B00C124
:0101D5000029
:080003008F993099FDC299228A
:10016800AE07EE75F00A849001D793FF120003EEF4
:0B01780075F00A84E5F093FF0200031D
:03000B00020127C8
:10012700C0E0C0D075D000C007758CD8758AF005BF
:100137000BAF0BEFC394644005750B00D200D007DB
:05014700D0D0D0E03231
:10019B00E58954F04401F589758CD8758AF0D2A99C
:0501AB00D2AFD28C224E
:1001B000C292C293C294BF0103D29222BF0203D261
:0501C0009322D29422FD
:0901E700BF02037F05227F0A22FA
:10018300AE078E081201E78F0AE4F50BC200AF0633
:080193001201B0AF0A0201687D
:10014C00E508B40105750C038008E508B4030775D0
:0C015C000C017F028002AF0C1201832214
:100100002095093096063097037F0122209609300A
:1001100095063097037F0222209709309506309686
:07012000037F03227F002290
:10009A00120100EF6016E509700885080D850C0E3F
:1000AA00C28C8F091201B0AF0A020168E509601912
:1000BA00E4F509850D08850E0CF50BC200AF081290
:0A00CA0001B0AF0A120168D28C22C7
:1000D400D295D296D2977F0112018312019B12000E
:1000E4009AE50970F93000F6C200E50A70051201BC
:0C00F4004C80EB150AAF0A12016880E294
:10001A000200D4E493A3F8E493A34003F68001F228
:10002A0008DFF48029E493A3F85407240CC8C333E7
:10003A00C4540F4420C8834004F456800146F6DFB6
:10004A00E4800B01020408102040809001C5E47E80
:10005A00019360BCA3FF543F30E509541FFEE493AB
:10006A00A360010ECF54C025E060A840B8E493A372
:10007A00FAE493A3F8E493A3C8C582C8CAC583CA9D
:10008A00F0A3C8C582C8CAC583CADFE9DEE780BE55
:0101D6000028
:00000001FF
